:100000000C945D000C9485000C9485000C94850084
:100010000C9485000C9485000C9485000C9485004C
:100020000C9485000C9485000C9485000C9485003C
:100030000C9485000C9485000C9485000C9485002C
:100040000C94A3030C9485000C9467060C949906F9
:100050000C9485000C9485000C9485000C9485000C
:100060000C9485000C94850000000008000201003B
:100070000003040700000000000000000102040863
:100080001020408001020408102001020408102002
:10009000040404040404040402020202020203032E
:1000A0000303030300000000250028002B000000CC
:1000B0000000240027002A00C90611241FBECFEF2C
:1000C000D8E0DEBFCDBF11E0A0E0B1E0E6E4FFE0A4
:1000D00002C005900D92AC32B107D9F722E0ACE234
:1000E000B1E001C01D92A03DB207E1F710E0CAEBFC
:1000F000D0E004C02297FE010E949D07C83BD107B3
:10010000C9F70E940D070C94A1070C94000028E089
:1001100088E190E00FB6F894A895809360000FBE38
:1001200020936000FFCFCF93DF93D82F8DE78D1BF7
:100130006CE10E944507C92F892F67E00E9445079F
:10014000CF5FC80F6C2F617082E10E94EC046C2FAE
:10015000627081E10E94EC046C2F647080E10E9467
:10016000EC046C2F68708EE00E94EC04D03730F401
:10017000C4FB662760F981E0682702C06C2F6071BC
:100180008DE0DF91CF910C94EC041F93CF93DF931C
:10019000182FD62FE82FE770F0E0662319F0EA5FFA
:1001A000FE4F02C0E25FFE4FC0816C2F617086E09F
:1001B0000E94EC046C2F627087E00E94EC046C2FAC
:1001C000647085E00E94EC046C2F687084E00E94EB
:1001D000EC0461E0183030F483E00E94EC0460E04D
:1001E00082E005C082E00E94EC0460E083E00E94AF
:1001F000EC0461E06D278FE0DF91CF911F910C94AB
:10020000EC0461E083E00E94EC0461E082E00E9483
:10021000EC0460E086E00E94EC0460E087E00E946D
:10022000EC0460E085E00E94EC0460E084E00E9461
:10023000EC0460E082E10E94EC0460E081E10E9455
:10024000EC0460E080E10E94EC0460E08EE00E943B
:10025000EC0460E08DE00C94EC04CF93E82FF0E028
:10026000EA5EFE4FE081F0E0EF5FFE4FC08161E0AB
:100270008C2F0E94EC0484EF91E00E94440460E023
:100280008C2F0E94EC048AEF90E0CF910C944404F0
:1002900061E0682783E10C94EC042F923F924F9227
:1002A0005F926F927F928F929F92AF92BF92CF9206
:1002B000DF92EF92FF920F931F93CF93DF9300D0C3
:1002C0001F92CDB7DEB77B014C016B011B821A82F6
:1002D0008CE1282E312C44244394512CF401A1901C
:1002E000B1904F01E114F104A1F0F601608071803A
:1002F000A614B70481F48A819B8101969B838A832B
:1003000092E0C90ED11CEA81FB81EE37F10531F78D
:1003100037C0612C712C8A819B81B1010E945107E9
:1003200069838A810E94930000E010E06A247B24A4
:10033000C201002E02C0880F991F0A94E2F79C01A7
:1003400026213721232B19F4E114F10499F48A2191
:100350009B2121E0892B09F420E061E080912C01B0
:10036000281301C060E08FE0801B0E94C5008981D6
:100370000E942D010F5F1F4F00311105C9F6BBCF41
:100380000E940101EF2819F481E080932D010F9064
:100390000F900F90DF91CF911F910F91FF90EF90F1
:1003A000DF90CF90BF90AF909F908F907F906F9095
:1003B0005F904F903F902F90089526E040E052ECE0
:1003C00061E070E083E392E00E94050661E083E073
:1003D0000E94EC0461E082E00E94EC0461E086E0AF
:1003E0000E94B30461E087E00E94B30461E085E00D
:1003F0000E94B30461E084E00E94B30461E082E102
:100400000E94B30461E081E10E94B30461E080E1F5
:100410000E94B30461E08EE00E94B30461E08DE0CD
:100420000E94B30461E083E00E94B30461E082E0D3
:100430000E94B30461E08FE00E94B30461E08BE0AE
:100440000E94B30461E088E00E94B30461E089E0A7
:100450000E94B30461E08AE00E94B30461E08CE092
:100460000E94B30461E083E10E94B30480E00E9433
:10047000480168EE73E080E090E00E941C0481E097
:100480000E94480168EE73E080E090E00E941C0446
:1004900080E00C94480183E392E00E942205181644
:1004A00019062CF483E392E00E943B05F4CF0895F3
:1004B000AF92BF92CF92DF92EF92FF920F931F9372
:1004C000CF93DF938C015B010E94ED036B017C01F4
:1004D000E801CE01801B910B8A159B05ACF483E3E8
:1004E00092E00E942205892B49F40E94ED036C19C9
:1004F0007D096838734198F380E007C083E392E098
:100500000E943B058993E5CF81E0DF91CF911F9158
:100510000F91FF90EF90DF90CF90BF90AF90089534
:10052000682F83E392E00C94A005CF930E945802B9
:10053000C82F811103C080EE0E9490028C2FCF91B2
:100540000895CF92DF92EF92FF920F931F93CF9374
:10055000DF931F92CDB7DEB70DB71EB761E070E035
:10056000CE0101960E949502882309F457C0898123
:10057000682F70E02DB73EB7261B370B0FB6F894E7
:100580003EBF0FBE2DBF2F5F3F4F690186952DB730
:100590003EB792E0899F2019310911240FB6F894D3
:1005A0003EBF0FBE2DBF2F5F3F4F7901C6010E9496
:1005B0009502882399F1898190E020E030E02817A6
:1005C0003907A4F4D601A20FB31FF901EE7FEE0D97
:1005D000FF1D4C9150E0542F442711966C91460F0B
:1005E000511D518340832E5F3F4FE9CF8091000121
:1005F000882361F080912D01882319F06EE271E06B
:1006000002C060E070E0C7010E944D018CEFF7016D
:10061000AEE2B1E001900D928A95E1F70FB6F89441
:100620001EBF0FBE0DBF0FB6F8941EBF0FBE0DBF8D
:100630000F90DF91CF911F910F91FF90EF90DF907E
:10064000CF900895CF93DF9300D01F92CDB7DEB740
:1006500083E392E00E942205892B09F46CC061E0DB
:1006600070E0CE0103960E945802882309F463C00B
:100670008B818F3F09F05FC061E070E0CE01029690
:100680000E949502882309F456C08A81823A29F192
:1006900028F4803A79F0813A81F04DC0833A79F1BB
:1006A0008F3A09F048C00E944B028FEF0E949002DF
:1006B0000E9487000E94A10239C061E070E0CE0173
:1006C00001960E9495028823B1F181E099819111F0
:1006D00001C080E00E94480129C061E070E0CE01C5
:1006E00001960E949502882331F181E09981911150
:1006F00001C080E080932C0110922D0117C061E0B1
:1007000070E0CE0101960E9495028823A1F081E05D
:100710009981911101C080E080930001882331F01C
:1007200060E070E08EE291E00E944D010E944B0279
:100730008FEF0E9490020F900F900F90DF91CF915A
:1007400008950C9422031F920F920FB60F9211245A
:100750002F933F938F939F93AF93BF9380912B02DF
:1007600090912C02A0912D02B0912E0230912A027C
:1007700023E0230F2D3720F40196A11DB11D05C0E4
:1007800026E8230F0296A11DB11D20932A02809313
:100790002B0290932C02A0932D02B0932E028091F5
:1007A0002F0290913002A0913102B0913202019655
:1007B000A11DB11D80932F0290933002A0933102AE
:1007C000B0933202BF91AF919F918F913F912F9142
:1007D0000F900FBE0F901F9018952FB7F89460914F
:1007E0002B0270912C0280912D0290912E022FBF2E
:1007F00008953FB7F89480912F0290913002A09114
:100800003102B091320226B5A89B05C02F3F19F0E6
:100810000196A11DB11D3FBF6627782F892F9A2F02
:10082000620F711D811D911D42E0660F771F881FA9
:10083000991F4A95D1F70895CF92DF92EF92FF92D8
:10084000CF93DF936B017C010E94F903EB01C1148C
:10085000D104E104F10489F00E9444070E94F903E5
:100860006C1B7D0B683E734090F381E0C81AD10881
:10087000E108F108C851DC4FEACFDF91CF91FF903A
:10088000EF90DF90CF9008958230910538F0880F77
:10089000991F880F991F05970197F1F7089578948C
:1008A00084B5826084BD84B5816084BD85B5826075
:1008B00085BD85B5816085BDEEE6F0E08081816013
:1008C0008083E1E8F0E01082808182608083808113
:1008D00081608083E0E8F0E0808181608083E1EBEB
:1008E000F0E0808184608083E0EBF0E080818160D3
:1008F0008083EAE7F0E08081846080838081826089
:100900008083808181608083808180688083109271
:10091000C1000895833081F028F4813099F082304D
:10092000A1F008958730A9F08830B9F08430D1F46F
:10093000809180008F7D03C0809180008F778093AD
:100940008000089584B58F7702C084B58F7D84BD03
:1009500008958091B0008F7703C08091B0008F7DA3
:100960008093B0000895CF93DF9390E0FC01E458AA
:10097000FF4F2491FC01E057FF4F8491882349F1F8
:1009800090E0880F991FFC01E255FF4FA591B491AB
:100990008C559F4FFC01C591D4919FB7611108C040
:1009A000F8948C91209582238C93888182230AC0AD
:1009B000623051F4F8948C91322F309583238C93CC
:1009C0008881822B888304C0F8948C91822B8C932D
:1009D0009FBFDF91CF9108950F931F93CF93DF9324
:1009E0001F92CDB7DEB7282F30E0F901E859FF4F4D
:1009F0008491F901E458FF4F1491F901E057FF4F3A
:100A000004910023C9F0882321F069830E948A049D
:100A10006981E02FF0E0EE0FFF1FEC55FF4FA5912D
:100A2000B4919FB7F8948C91611103C01095812304
:100A300001C0812B8C939FBF0F90DF91CF911F91AD
:100A40000F910895FC01818D228D90E0805C9F4F75
:100A5000821B91098F7399270895FC01918D828DD6
:100A6000981731F0828DE80FF11D858D90E0089583
:100A70008FEF9FEF0895FC01918D828D981761F0A3
:100A8000828DDF01A80FB11D5D968C91928D9F5FC5
:100A90009F73928F90E008958FEF9FEF08958FEBF3
:100AA00096E0892B49F080E090E0892B29F00E94A4
:100AB000BF0681110C9400000895FC01848DDF01B4
:100AC000A80FB11DA35ABF4F2C91848D90E00196C1
:100AD0008F739927848FA689B7892C93A089B189B0
:100AE0008C9180648C93938D848D981306C00288BA
:100AF000F389E02D80818F7D80830895CF93DF93EC
:100B0000EC01888D8823C9F0EA89FB89808185FD05
:100B100005C0A889B9898C9186FD0FC00FB607FC66
:100B2000F5CF808185FFF2CFA889B9898C9185FFA7
:100B3000EDCFCE010E945D05E7CFDF91CF91089503
:100B4000CF92DF92FF920F931F93CF93DF931F9269
:100B5000CDB7DEB76C0181E0D60158968C935897DB
:100B60005B969C915B975C968C915C97981307C001
:100B70005096ED91FC915197808185FD2EC0F60134
:100B8000038D10E00F5F1F4F0F731127F02EF6013A
:100B9000848DF81211C00FB607FCF9CFD60150961C
:100BA000ED91FC915197808185FFF1CFC60169835A
:100BB0000E945D056981EBCF838DE80FF11DE35A3B
:100BC000FF4F6083D6015B960C935B975296ED9135
:100BD000FC915397808180620CC0D6015696ED91AE
:100BE000FC91579760835096ED91FC9151978081CD
:100BF0008064808381E090E00F90DF91CF911F911E
:100C00000F91FF90DF90CF900895BF92CF92DF9227
:100C1000EF92FF92CF93DF93EC016A017B01B22E3A
:100C2000E889F98982E08083411581EE58076105E2
:100C30007105A1F060E079E08DE390E0A7019601F5
:100C40000E94650721503109410951095695479580
:100C500037952795211580E1380798F0E889F989BB
:100C6000108260E874E88EE190E0A70196010E948E
:100C70006507215031094109510956954795379526
:100C80002795EC85FD853083EE85FF852083188EC2
:100C9000EC89FD89B082EA89FB898081806180834B
:100CA000EA89FB89808188608083EA89FB89808169
:100CB00080688083EA89FB8980818F7D8083DF91D2
:100CC000CF91FF90EF90DF90CF90BF9008951F924B
:100CD0000F920FB60F9211242F938F939F93EF9340
:100CE000FF93E0914302F09144028081E091490238
:100CF000F0914A0282FD12C0908180914C028F5F78
:100D00008F7320914D02821751F0E0914C02F0E078
:100D1000ED5CFD4F958F80934C0201C08081FF9167
:100D2000EF919F918F912F910F900FBE0F901F9079
:100D300018951F920F920FB60F9211242F933F9385
:100D40004F935F936F937F938F939F93AF93BF93D3
:100D5000EF93FF9383E392E00E945D05FF91EF9193
:100D6000BF91AF919F918F917F916F915F914F91C3
:100D70003F912F910F900FBE0F901F90189583E316
:100D800092E00E94220521E0892B09F420E0822FC5
:100D90000895109236021092350288EE93E0A0E09A
:100DA000B0E08093370290933802A0933902B09359
:100DB0003A028FE191E0909334028093330285EC04
:100DC00090E09093400280933F0284EC90E09093F7
:100DD00042028093410280EC90E090934402809321
:100DE000430281EC90E0909346028093450282ECAE
:100DF00090E0909348028093470286EC90E09093B5
:100E00004A028093490210924C0210924D021092B5
:100E10004E0210924F02089508950E944F040E94BE
:100E20000C070E94DD01CFE4D5E00E94A1032097CA
:100E3000E1F30E944F05F9CFCF92DF92EF92FF923C
:100E40000F931F93CF93DF936C017A01EB01E60EB2
:100E5000F71E00E010E0CE15DF0561F06991D601C4
:100E6000ED91FC910190F081E02DC6010995080FEC
:100E7000191FF1CFC801DF91CF911F910F91FF9002
:100E8000EF90DF90CF9008950895991B79E004C00A
:100E9000991F961708F0961B881F7A95C9F78095B9
:100EA000089597FB072E16F4009407D077FD09D01C
:100EB0000E94870707FC05D03EF4909581959F4FCF
:100EC0000895709561957F4F0895A1E21A2EAA1B8F
:100ED000BB1BFD010DC0AA1FBB1FEE1FFF1FA217EA
:100EE000B307E407F50720F0A21BB30BE40BF50BE7
:100EF000661F771F881F991F1A9469F76095709570
:100F0000809590959B01AC01BD01CF010895AA1B6E
:100F1000BB1B51E107C0AA1FBB1FA617B70710F0E4
:100F2000A61BB70B881F991F5A95A9F78095909516
:100F3000BC01CD010895EE0FFF1F0590F491E02D47
:060F40000994F894FFCFB4
:100F4600010B08090A0C07060504030102000A0B37
:100F560008090E0F0C0D010203000400000000A09A
:0C0F6600051C0722053B052D057E05003B
:00000001FF
