:100000000C945D000C9485000C9485000C94850084
:100010000C9485000C9485000C9485000C9485004C
:100020000C9485000C9485000C9485000C9485003C
:100030000C9485000C9485000C9485000C9485002C
:100040000C947F030C9485000C9443060C94750665
:100050000C9485000C9485000C9485000C9485000C
:100060000C9485000C94850000000008000201003B
:100070000003040700000000000000000102040863
:100080001020408001020408102001020408102002
:10009000040404040404040402020202020203032E
:1000A0000303030300000000250028002B000000CC
:1000B0000000240027002A00A50611241FBECFEF50
:1000C000D8E0DEBFCDBF11E0A0E0B1E0EEEAFEE097
:1000D00002C005900D92A632B107D9F722E0A6E240
:1000E000B1E001C01D92A730B207E1F710E0CAEB02
:1000F000D0E004C02297FE010E945107C83BD107FF
:10010000C9F70E94E9060C9455070C94000028E0FA
:1001100088E190E00FB6F894A895809360000FBE38
:1001200020936000FFCFCF939BE1981B892F6CE158
:100130000E942107C92F892F67E00E942107CF5F06
:10014000C80F6C2F617082E10E94C8046C2F62702E
:1001500081E10E94C8046C2F647080E10E94C80491
:100160006C2F68708EE00E94C8046C2F60718DE067
:10017000CF910C94C8041F93CF93DF93182FD62FE1
:10018000E82FE770F0E0662319F0EA5FFE4F02C047
:10019000E25FFE4FC0816C2F617086E00E94C80450
:1001A0006C2F627087E00E94C8046C2F647085E039
:1001B0000E94C8046C2F687084E00E94C80461E04B
:1001C000183030F483E00E94C80460E082E005C08B
:1001D00082E00E94C80460E083E00E94C80461E0FD
:1001E0006D278FE0DF91CF911F910C94C80461E0DF
:1001F00083E00E94C80461E082E00E94C80460E0DD
:1002000086E00E94C80460E087E00E94C80460E0C5
:1002100085E00E94C80460E084E00E94C80460E0B9
:1002200082E10E94C80460E081E10E94C80460E0AD
:1002300080E10E94C80460E08EE00E94C80460E093
:100240008DE00C94C804CF93E82FF0E0E05AFE4F05
:10025000E081F0E0EF5FFE4FC08161E08C2F0E94F3
:10026000C80484EF91E00E94200460E08C2F0E947B
:10027000C8048AEF90E0CF910C94200461E06827D5
:1002800083E10C94C8044F925F926F927F928F9299
:100290009F92AF92BF92CF92DF92EF92FF920F9315
:1002A0001F93CF93DF938B015C017B01412C88244A
:1002B0008394912C9FE0592EF501C190D1905F015C
:1002C0000115110571F0F70160807180C614D70423
:1002D00051F4F2E0EF0EF11C43948CE14812ECCFA4
:1002E00030C0612C712C842D0E949300C0E0D0E0BE
:1002F0006C247D2494010C2E02C0220F331F0A941B
:10030000E2F7A90146215721452B19F401151105E2
:1003100099F42C213D2181E0232B09F480E061E058
:1003200090912601891301C060E0852D8C1B0E94ED
:10033000BB0080E00E9423012196C031D105D1F697
:10034000C8CF0E94F700012B19F481E080932701A8
:10035000DF91CF911F910F91FF90EF90DF90CF90A1
:10036000BF90AF909F908F907F906F905F904F90D5
:10037000089526E040E052EC61E070E08AE691E00A
:100380000E94E10561E083E00E94C80461E082E030
:100390000E94C80461E086E00E948F0461E087E06B
:1003A0000E948F0461E085E00E948F0461E084E098
:1003B0000E948F0461E082E10E948F0461E081E18C
:1003C0000E948F0461E080E10E948F0461E08EE072
:1003D0000E948F0461E08DE00E948F0461E083E061
:1003E0000E948F0461E082E00E948F0461E08FE050
:1003F0000E948F0461E08BE00E948F0461E088E03E
:100400000E948F0461E089E00E948F0461E08AE02D
:100410000E948F0461E08CE00E948F0461E083E120
:100420000E948F0480E00E943E0168EE73E080E04D
:1004300090E00E94F80381E00E943E0168EE73E0C4
:1004400080E090E00E94F80380E00C943E018AE690
:1004500091E00E94FE04181619062CF48AE691E039
:100460000E941705F4CF0895AF92BF92CF92DF920A
:10047000EF92FF920F931F93CF93DF938C015B0159
:100480000E94C9036B017C01E801CE01801B910B26
:100490008A159B05ACF48AE691E00E94FE04892B44
:1004A00049F40E94C9036C197D096838734198F3B7
:1004B00080E007C08AE691E00E9417058993E5CFA6
:1004C00081E0DF91CF911F910F91FF90EF90DF902E
:1004D000CF90BF90AF900895682F8AE691E00C947A
:1004E0007C05CF930E943402C82F811103C080EE97
:1004F0000E946C028C2FCF910895CF92DF92EF92E1
:10050000FF920F931F93CF93DF931F92CDB7DEB768
:100510000DB71EB761E070E0CE0101960E94710236
:10052000882309F457C08981682F70E02DB73EB742
:10053000261B370B0FB6F8943EBF0FBE2DBF2F5FA3
:100540003F4F690186952DB73EB792E0899F2019EC
:10055000310911240FB6F8943EBF0FBE2DBF2F5F97
:100560003F4F7901C6010E947102882399F1898168
:1005700090E020E030E028173907A4F4D601A20F5C
:10058000B31FF901EE7FEE0DFF1D4C9150E0542F8B
:10059000442711966C91460F511D518340832E5F65
:1005A0003F4FE9CF80910001882361F080912701BE
:1005B000882319F068E271E002C060E070E0C701D2
:1005C0000E94430188E3F701A8E2B1E001900D9297
:1005D0008A95E1F70FB6F8941EBF0FBE0DBF0FB698
:1005E000F8941EBF0FBE0DBF0F90DF91CF911F91EA
:1005F0000F91FF90EF90DF90CF900895CF93DF930E
:1006000000D01F92CDB7DEB78AE691E00E94FE04CB
:10061000892B09F46CC061E070E0CE0103960E9462
:100620003402882309F463C08B818F3F09F05FC0D7
:1006300061E070E0CE0102960E947102882309F405
:1006400056C08A81823A29F128F4803A79F0813AB9
:1006500081F04DC0833A79F18F3A09F048C00E9489
:1006600027028FEF0E946C020E9487000E947D0289
:1006700039C061E070E0CE0101960E9471028823CA
:10068000B1F181E09981911101C080E00E943E01A9
:1006900029C061E070E0CE0101960E9471028823BA
:1006A00031F181E09981911101C080E080932601B0
:1006B0001092270117C061E070E0CE0101960E9400
:1006C00071028823A1F081E09981911101C080E03D
:1006D00080930001882331F060E070E088E291E0CF
:1006E0000E9443010E9427028FEF0E946C020F902C
:1006F0000F900F90DF91CF9108950C94FE021F92FE
:100700000F920FB60F9211242F933F938F939F93C5
:10071000AF93BF938091620190916301A0916401B6
:10072000B09165013091610123E0230F2D3720F452
:100730000196A11DB11D05C026E8230F0296A11D3B
:10074000B11D209361018093620190936301A09396
:100750006401B09365018091660190916701A09159
:100760006801B09169010196A11DB11D80936601D8
:1007700090936701A0936801B0936901BF91AF9115
:100780009F918F913F912F910F900FBE0F901F90CF
:1007900018952FB7F8946091620170916301809170
:1007A0006401909165012FBF08953FB7F89480913F
:1007B000660190916701A0916801B091690126B529
:1007C000A89B05C02F3F19F00196A11DB11D3FBF89
:1007D0006627782F892F9A2F620F711D811D911D19
:1007E00042E0660F771F881F991F4A95D1F7089539
:1007F000CF92DF92EF92FF92CF93DF936B017C0158
:100800000E94D503EB01C114D104E104F10489F085
:100810000E9420070E94D5036C1B7D0B683E73402D
:1008200090F381E0C81AD108E108F108C851DC4F03
:10083000EACFDF91CF91FF90EF90DF90CF900895B6
:100840008230910538F0880F991F880F991F0597FE
:100850000197F1F70895789484B5826084BD84B5DA
:10086000816084BD85B5826085BD85B5816085BDAB
:10087000EEE6F0E0808181608083E1E8F0E01082C4
:10088000808182608083808181608083E0E8F0E005
:10089000808181608083E1EBF0E0808184608083EF
:1008A000E0EBF0E0808181608083EAE7F0E0808126
:1008B0008460808380818260808380818160808386
:1008C0008081806880831092C1000895833081F018
:1008D00028F4813099F08230A1F008958730A9F092
:1008E0008830B9F08430D1F4809180008F7D03C0CE
:1008F000809180008F7780938000089584B58F77F2
:1009000002C084B58F7D84BD08958091B0008F773B
:1009100003C08091B0008F7D8093B0000895CF9385
:10092000DF9390E0FC01E458FF4F2491FC01E05775
:10093000FF4F8491882349F190E0880F991FFC01B3
:10094000E255FF4FA591B4918C559F4FFC01C59185
:10095000D4919FB7611108C0F8948C91209582239F
:100960008C93888182230AC0623051F4F8948C9170
:10097000322F309583238C938881822B888304C007
:10098000F8948C91822B8C939FBFDF91CF91089527
:100990000F931F93CF93DF931F92CDB7DEB7282F0E
:1009A00030E0F901E859FF4F8491F901E458FF4F15
:1009B0001491F901E057FF4F04910023C9F08823F7
:1009C00021F069830E9466046981E02FF0E0EE0F58
:1009D000FF1FEC55FF4FA591B4919FB7F8948C91F0
:1009E000611103C01095812301C0812B8C939FBF9F
:1009F0000F90DF91CF911F910F910895FC01818D90
:100A0000228D90E0805C9F4F821B91098F73992704
:100A10000895FC01918D828D981731F0828DE80F39
:100A2000F11D858D90E008958FEF9FEF0895FC01F3
:100A3000918D828D981761F0828DDF01A80FB11D15
:100A40005D968C91928D9F5F9F73928F90E0089539
:100A50008FEF9FEF08958BE996E0892B49F080E0B6
:100A600090E0892B29F00E949B0681110C940000D4
:100A70000895FC01848DDF01A80FB11DA35ABF4F5B
:100A80002C91848D90E001968F739927848FA6898D
:100A9000B7892C93A089B1898C9180648C93938DB4
:100AA000848D981306C00288F389E02D80818F7DA4
:100AB00080830895CF93DF93EC01888D8823C9F05C
:100AC000EA89FB89808185FD05C0A889B9898C9157
:100AD00086FD0FC00FB607FCF5CF808185FFF2CFF2
:100AE000A889B9898C9185FFEDCFCE010E94390587
:100AF000E7CFDF91CF910895CF92DF92FF920F93CE
:100B00001F93CF93DF931F92CDB7DEB76C0181E0C7
:100B1000D60158968C9358975B969C915B975C9600
:100B20008C915C97981307C05096ED91FC9151976A
:100B3000808185FD2EC0F601038D10E00F5F1F4FF1
:100B40000F731127F02EF601848DF81211C00FB625
:100B500007FCF9CFD6015096ED91FC915197808119
:100B600085FFF1CFC60169830E9439056981EBCF0A
:100B7000838DE80FF11DE35AFF4F6083D6015B962A
:100B80000C935B975296ED91FC9153978081806214
:100B90000CC0D6015696ED91FC9157976083509604
:100BA000ED91FC91519780818064808381E090E099
:100BB0000F90DF91CF911F910F91FF90DF90CF9019
:100BC0000895BF92CF92DF92EF92FF92CF93DF937F
:100BD000EC016A017B01B22EE889F98982E0808309
:100BE000411581EE580761057105A1F060E079E0DB
:100BF0008DE390E0A70196010E942D072150310955
:100C0000410951095695479537952795211580E15A
:100C1000380798F0E889F989108260E874E88EE175
:100C200090E0A70196010E942D072150310941094A
:100C300051095695479537952795EC85FD85308365
:100C4000EE85FF852083188EEC89FD89B082EA89C4
:100C5000FB89808180618083EA89FB89808188604B
:100C60008083EA89FB89808180688083EA89FB89A7
:100C700080818F7D8083DF91CF91FF90EF90DF9017
:100C8000CF90BF9008951F920F920FB60F9211242C
:100C90002F938F939F93EF93FF93E0917A01F091BD
:100CA0007B018081E0918001F091810182FD12C081
:100CB0009081809183018F5F8F73209184018217CF
:100CC00051F0E0918301F0E0E659FE4F958F80935B
:100CD000830101C08081FF91EF919F918F912F91AE
:100CE0000F900FBE0F901F9018951F920F920FB686
:100CF0000F9211242F933F934F935F936F937F93A2
:100D00008F939F93AF93BF93EF93FF938AE691E006
:100D10000E943905FF91EF91BF91AF919F918F9103
:100D20007F916F915F914F913F912F910F900FBEE7
:100D30000F901F9018958AE691E00E94FE0421E032
:100D4000892B09F420E0822F089510926D011092F2
:100D50006C0188EE93E0A0E0B0E080936E01909388
:100D60006F01A0937001B09371018AE191E09093BB
:100D70006B0180936A0185EC90E0909377018093FA
:100D8000760184EC90E0909379018093780180EC77
:100D900090E090937B0180937A0181EC90E09093B6
:100DA0007D0180937C0182EC90E090937F018093A1
:100DB0007E0186EC90E090938101809380011092F7
:100DC000830110928401109285011092860108958A
:100DD00008950E942B040E94E8060E94B901CBE20C
:100DE000D5E00E947D032097E1F30E942B05F9CF07
:100DF000CF92DF92EF92FF920F931F93CF93DF93E7
:100E00006C017A01EB01E60EF71E00E010E0CE1552
:100E1000DF0561F06991D601ED91FC910190F081BF
:100E2000E02DC6010995080F191FF1CFC801DF9108
:100E3000CF911F910F91FF90EF90DF90CF90089589
:100E40000895991B79E004C0991F961708F0961B26
:100E5000881F7A95C9F780950895A1E21A2EAA1BDA
:100E6000BB1BFD010DC0AA1FBB1FEE1FFF1FA2175A
:100E7000B307E407F50720F0A21BB30BE40BF50B57
:100E8000661F771F881F991F1A9469F760957095E0
:100E9000809590959B01AC01BD01CF010895EE0FA7
:0E0EA000FF1F0590F491E02D0994F894FFCF08
:100EAE00010B08090A0C07060504030102000A0BD0
:100EBE0008090E0F0C0D000000007C05F806FE045C
:060ECE00170509055A0595
:00000001FF
