:100000000C945D000C9485000C9485000C94850084
:100010000C9485000C9485000C9485000C9485004C
:100020000C9485000C9485000C9485000C9485003C
:100030000C9485000C9485000C9485000C9485002C
:100040000C9499030C9485000C945D060C948F0617
:100050000C9485000C9485000C9485000C9485000C
:100060000C9485000C94850000000008000201003B
:100070000003040700000000000000000102040863
:100080001020408001020408102001020408102002
:10009000040404040404040402020202020203032E
:1000A0000303030300000000250028002B000000CC
:1000B0000000240027002A00BF0611241FBECFEF36
:1000C000D8E0DEBFCDBF11E0A0E0B1E0E2E3FFE0A9
:1000D00002C005900D92AA32B107D9F722E0AAE238
:1000E000B1E001C01D92AA37B207E1F710E0CAEBF8
:1000F000D0E004C02297FE010E949307C83BD107BD
:10010000C9F70E9403070C9497070C94000028E09D
:1001100088E190E00FB6F894A895809360000FBE38
:1001200020936000FFCFCF9393E5981B892F6CE15C
:100130000E943B07C92F892F67E00E943B07CF5FD2
:10014000C80F6C2F617082E10E94E2046C2F627014
:1001500081E10E94E2046C2F647080E10E94E2045D
:100160006C2F68708EE00E94E2046C2F60718DE04D
:10017000CF910C94E2041F93CF93DF93182FD62FC7
:10018000E82FE770F0E0662319F0EA5FFE4F02C047
:10019000E25FFE4FC0816C2F617086E00E94E20436
:1001A0006C2F627087E00E94E2046C2F647085E01F
:1001B0000E94E2046C2F687084E00E94E20461E017
:1001C000183030F483E00E94E20460E082E005C071
:1001D00082E00E94E20460E083E00E94E20461E0C9
:1001E0006D278FE0DF91CF911F910C94E20461E0C5
:1001F00083E00E94E20461E082E00E94E20460E0A9
:1002000086E00E94E20460E087E00E94E20460E091
:1002100085E00E94E20460E084E00E94E20460E085
:1002200082E10E94E20460E081E10E94E20460E079
:1002300080E10E94E20460E08EE00E94E20460E05F
:100240008DE00C94E204CF93E82FF0E0EA5EFE4FDD
:10025000E081F0E0EF5FFE4FC08161E08C2F0E94F3
:10026000E20484EF91E00E943A0460E08C2F0E9447
:10027000E2048AEF90E0CF910C943A0461E06827A1
:1002800083E10C94E2042F923F924F925F926F921F
:100290007F928F929F92AF92BF92CF92DF92EF9216
:1002A000FF920F931F93CF93DF9300D01F92CDB790
:1002B000DEB77B014C016B011B821A828CE1282E78
:1002C000312C44244394512CF401A190B1904F015E
:1002D000E114F104A1F0F60160807180A614B70466
:1002E00081F48A819B8101969B838A8392E0C90E67
:1002F000D11CEA81FB81E435F10531F737C0612C6F
:10030000712C8A819B81B1010E94470769838A8190
:100310000E94930000E010E06A247B24C201002EBA
:1003200002C0880F991F0A94E2F79C012621372109
:10033000232B19F4E114F10499F48A219B2121E083
:10034000892B09F420E061E080912A01281301C083
:1003500060E08FE0801B0E94BB0089810E94230126
:100360000F5F1F4F00311105C9F6BBCF0E94F70088
:10037000EF2819F481E080932B010F900F900F90DC
:10038000DF91CF911F910F91FF90EF90DF90CF9071
:10039000BF90AF909F908F907F906F905F904F90A5
:1003A0003F902F90089526E040E052EC61E070E02D
:1003B0008DED91E00E94FB0561E083E00E94E20484
:1003C00061E082E00E94E20461E086E00E94A9040C
:1003D00061E087E00E94A90461E085E00E94A90431
:1003E00061E084E00E94A90461E082E10E94A90426
:1003F00061E081E10E94A90461E080E10E94A9041A
:1004000061E08EE00E94A90461E08DE00E94A904F1
:1004100061E083E00E94A90461E082E00E94A904F7
:1004200061E08FE00E94A90461E08BE00E94A904D2
:1004300061E088E00E94A90461E089E00E94A904CB
:1004400061E08AE00E94A90461E08CE00E94A904B6
:1004500061E083E10E94A90480E00E943E0168EE11
:1004600073E080E090E00E94120481E00E943E016F
:1004700068EE73E080E090E00E94120480E00C944B
:100480003E018DED91E00E941805181619062CF416
:100490008DED91E00E943105F4CF0895AF92BF92A7
:1004A000CF92DF92EF92FF920F931F93CF93DF9340
:1004B0008C015B010E94E3036B017C01E801CE012A
:1004C000801B910B8A159B05ACF48DED91E00E9489
:1004D0001805892B49F40E94E3036C197D096838DB
:1004E000734198F380E007C08DED91E00E943105E3
:1004F0008993E5CF81E0DF91CF911F910F91FF901C
:10050000EF90DF90CF90BF90AF900895682F8DED62
:1005100091E00C949605CF930E944E02C82F811152
:1005200003C080EE0E9486028C2FCF910895CF9257
:10053000DF92EF92FF920F931F93CF93DF931F925F
:10054000CDB7DEB70DB71EB761E070E0CE01019602
:100550000E948B02882309F457C08981682F70E0BC
:100560002DB73EB7261B370B0FB6F8943EBF0FBE14
:100570002DBF2F5F3F4F690186952DB73EB792E0A3
:10058000899F2019310911240FB6F8943EBF0FBE80
:100590002DBF2F5F3F4F7901C6010E948B02882338
:1005A00099F1898190E020E030E028173907A4F420
:1005B000D601A20FB31FF901EE7FEE0DFF1D4C9186
:1005C00050E0542F442711966C91460F511D5183D2
:1005D00040832E5F3F4FE9CF80910001882361F077
:1005E00080912B01882319F06CE271E002C060E079
:1005F00070E0C7010E94430188EAF701ACE2B1E074
:1006000001900D928A95E1F70FB6F8941EBF0FBEC8
:100610000DBF0FB6F8941EBF0FBE0DBF0F90DF9138
:10062000CF911F910F91FF90EF90DF90CF900895A1
:10063000CF93DF9300D01F92CDB7DEB78DED91E061
:100640000E941805892B09F46CC061E070E0CE01AE
:1006500003960E944E02882309F463C08B818F3F6A
:1006600009F05FC061E070E0CE0102960E948B024B
:10067000882309F456C08A81823A29F128F4803A05
:1006800079F0813A81F04DC0833A79F18F3A09F0DF
:1006900048C00E9441028FEF0E9486020E9487009C
:1006A0000E94970239C061E070E0CE0101960E947D
:1006B0008B028823B1F181E09981911101C080E022
:1006C0000E943E0129C061E070E0CE0101960E94C7
:1006D0008B02882331F181E09981911101C080E082
:1006E00080932A0110922B0117C061E070E0CE01C7
:1006F00001960E948B028823A1F081E099819111DB
:1007000001C080E080930001882331F060E070E058
:100710008CE291E00E9443010E9441028FEF0E940F
:1007200086020F900F900F90DF91CF9108950C9457
:1007300018031F920F920FB60F9211242F933F931D
:100740008F939F93AF93BF938091D5019091D601E2
:10075000A091D701B091D8013091D40123E0230FAB
:100760002D3720F40196A11DB11D05C026E8230FE9
:100770000296A11DB11D2093D4018093D5019093C1
:10078000D601A093D701B093D8018091D90190915F
:10079000DA01A091DB01B091DC010196A11DB11D30
:1007A0008093D9019093DA01A093DB01B093DC012F
:1007B000BF91AF919F918F913F912F910F900FBE5D
:1007C0000F901F9018952FB7F8946091D5017091F4
:1007D000D6018091D7019091D8012FBF08953FB7DE
:1007E000F8948091D9019091DA01A091DB01B09148
:1007F000DC0126B5A89B05C02F3F19F00196A11D6D
:10080000B11D3FBF6627782F892F9A2F620F711D68
:10081000811D911D42E0660F771F881F991F4A9521
:10082000D1F70895CF92DF92EF92FF92CF93DF93AB
:100830006B017C010E94EF03EB01C114D104E104C0
:10084000F10489F00E943A070E94EF036C1B7D0BB4
:10085000683E734090F381E0C81AD108E108F108BE
:10086000C851DC4FEACFDF91CF91FF90EF90DF903E
:10087000CF9008958230910538F0880F991F880F26
:10088000991F05970197F1F70895789484B58260D0
:1008900084BD84B5816084BD85B5826085BD85B524
:1008A000816085BDEEE6F0E0808181608083E1E8D3
:1008B000F0E010828081826080838081816080830B
:1008C000E0E8F0E0808181608083E1EBF0E080810E
:1008D00084608083E0EBF0E0808181608083EAE7E0
:1008E000F0E0808184608083808182608083808169
:1008F000816080838081806880831092C100089528
:10090000833081F028F4813099F08230A1F008958D
:100910008730A9F08830B9F08430D1F4809180001C
:100920008F7D03C0809180008F7780938000089531
:1009300084B58F7702C084B58F7D84BD0895809182
:10094000B0008F7703C08091B0008F7D8093B0009E
:100950000895CF93DF9390E0FC01E458FF4F24917A
:10096000FC01E057FF4F8491882349F190E0880F04
:10097000991FFC01E255FF4FA591B4918C559F4FF3
:10098000FC01C591D4919FB7611108C0F8948C9176
:10099000209582238C93888182230AC0623051F48F
:1009A000F8948C91322F309583238C938881822BFD
:1009B000888304C0F8948C91822B8C939FBFDF9125
:1009C000CF9108950F931F93CF93DF931F92CDB7CD
:1009D000DEB7282F30E0F901E859FF4F8491F90183
:1009E000E458FF4F1491F901E057FF4F04910023A1
:1009F000C9F0882321F069830E9480046981E02F77
:100A0000F0E0EE0FFF1FEC55FF4FA591B4919FB79B
:100A1000F8948C91611103C01095812301C0812B42
:100A20008C939FBF0F90DF91CF911F910F910895ED
:100A3000FC01818D228D90E0805C9F4F821B91098B
:100A40008F7399270895FC01918D828D981731F04D
:100A5000828DE80FF11D858D90E008958FEF9FEF57
:100A60000895FC01918D828D981761F0828DDF01D0
:100A7000A80FB11D5D968C91928D9F5F9F73928F91
:100A800090E008958FEF9FEF089585EB96E0892B16
:100A900049F080E090E0892B29F00E94B506811191
:100AA0000C9400000895FC01848DDF01A80FB11D96
:100AB000A35ABF4F2C91848D90E001968F73992794
:100AC000848FA689B7892C93A089B1898C91806481
:100AD0008C93938D848D981306C00288F389E02D42
:100AE00080818F7D80830895CF93DF93EC01888D83
:100AF0008823C9F0EA89FB89808185FD05C0A88922
:100B0000B9898C9186FD0FC00FB607FCF5CF8081A7
:100B100085FFF2CFA889B9898C9185FFEDCFCE01F1
:100B20000E945305E7CFDF91CF910895CF92DF92D6
:100B3000FF920F931F93CF93DF931F92CDB7DEB732
:100B40006C0181E0D60158968C9358975B969C91E6
:100B50005B975C968C915C97981307C05096ED91CB
:100B6000FC915197808185FD2EC0F601038D10E028
:100B70000F5F1F4F0F731127F02EF601848DF812AF
:100B800011C00FB607FCF9CFD6015096ED91FC913C
:100B90005197808185FFF1CFC60169830E9453057B
:100BA0006981EBCF838DE80FF11DE35AFF4F60831E
:100BB000D6015B960C935B975296ED91FC915397FF
:100BC000808180620CC0D6015696ED91FC915797BA
:100BD00060835096ED91FC91519780818064808371
:100BE00081E090E00F90DF91CF911F910F91FF90E6
:100BF000DF90CF900895BF92CF92DF92EF92FF9255
:100C0000CF93DF93EC016A017B01B22EE889F98969
:100C100082E08083411581EE580761057105A1F0DE
:100C200060E079E08DE390E0A70196010E945B0708
:100C30002150310941095109569547953795279516
:100C4000211580E1380798F0E889F989108260E879
:100C500074E88EE190E0A70196010E945B072150A5
:100C60003109410951095695479537952795EC85E6
:100C7000FD853083EE85FF852083188EEC89FD8904
:100C8000B082EA89FB89808180618083EA89FB895F
:100C9000808188608083EA89FB8980818068808385
:100CA000EA89FB8980818F7D8083DF91CF91FF90DE
:100CB000EF90DF90CF90BF9008951F920F920FB6E4
:100CC0000F9211242F938F939F93EF93FF93E091B3
:100CD000ED01F091EE018081E091F301F091F401DA
:100CE00082FD12C090818091F6018F5F8F732091F9
:100CF000F701821751F0E091F601F0E0E352FE4F68
:100D0000958F8093F60101C08081FF91EF919F91B3
:100D10008F912F910F900FBE0F901F9018951F92DB
:100D20000F920FB60F9211242F933F934F935F931F
:100D30006F937F938F939F93AF93BF93EF93FF93A3
:100D40008DED91E00E945305FF91EF91BF91AF911E
:100D50009F918F917F916F915F914F913F912F91D3
:100D60000F900FBE0F901F9018958DED91E00E948F
:100D7000180521E0892B09F420E0822F08951092B4
:100D8000E0011092DF0188EE93E0A0E0B0E08093F4
:100D9000E1019093E201A093E301B093E4018DE1BE
:100DA00091E09093DE018093DD0185EC90E09093DB
:100DB000EA018093E90184EC90E09093EC01809348
:100DC000EB0180EC90E09093EE018093ED0181ECDB
:100DD00090E09093F0018093EF0182EC90E090938B
:100DE000F2018093F10186EC90E09093F4018093FE
:100DF000F3011092F6011092F7011092F80110928F
:100E0000F901089508950E9445040E9402070E9476
:100E1000D301C5E4D5E00E9497032097E1F30E9437
:100E20004505F9CFCF92DF92EF92FF920F931F9378
:100E3000CF93DF936C017A01EB01E60EF71E00E021
:100E400010E0CE15DF0561F06991D601ED91FC91BE
:100E50000190F081E02DC6010995080F191FF1CF0F
:100E6000C801DF91CF911F910F91FF90EF90DF901C
:100E7000CF9008950895991B79E004C0991F9617A3
:100E800008F0961B881F7A95C9F78095089597FBFF
:100E9000072E16F4009407D077FD09D00E947D0735
:100EA00007FC05D03EF4909581959F4F089570956D
:100EB00061957F4F0895A1E21A2EAA1BBB1BFD016D
:100EC0000DC0AA1FBB1FEE1FFF1FA217B307E40729
:100ED000F50720F0A21BB30BE40BF50B661F771F81
:100EE000881F991F1A9469F7609570958095909561
:100EF0009B01AC01BD01CF010895AA1BBB1B51E1B1
:100F000007C0AA1FBB1FA617B70710F0A61BB70B79
:100F1000881F991F5A95A9F780959095BC01CD011E
:100F20000895EE0FFF1F0590F491E02D0994F894B9
:020F3000FFCFF1
:100F3200010B08090A0C07060504030102000A0B4B
:100F420008090E0F0C0D02030000000000960512A6
:0A0F5200071805310523057405009A
:00000001FF
